{
  "address": "0x836f4D37A43bB9f0B8dD6a65e1aC3B7E8244B87e",
  "abi": [
    {
      "inputs": [
        {
          "internalType": "address",
          "name": "priceFeedAddress",
          "type": "address"
        }
      ],
      "stateMutability": "nonpayable",
      "type": "constructor"
    },
    {
      "inputs": [],
      "name": "FundMe__NotOwner",
      "type": "error"
    },
    {
      "inputs": [],
      "name": "MINIMUM_USD",
      "outputs": [
        {
          "internalType": "uint256",
          "name": "",
          "type": "uint256"
        }
      ],
      "stateMutability": "view",
      "type": "function"
    },
    {
      "inputs": [
        {
          "internalType": "address",
          "name": "",
          "type": "address"
        }
      ],
      "name": "addressToAmountFunded",
      "outputs": [
        {
          "internalType": "uint256",
          "name": "",
          "type": "uint256"
        }
      ],
      "stateMutability": "view",
      "type": "function"
    },
    {
      "inputs": [],
      "name": "fund",
      "outputs": [],
      "stateMutability": "payable",
      "type": "function"
    },
    {
      "inputs": [
        {
          "internalType": "uint256",
          "name": "",
          "type": "uint256"
        }
      ],
      "name": "funders",
      "outputs": [
        {
          "internalType": "address",
          "name": "",
          "type": "address"
        }
      ],
      "stateMutability": "view",
      "type": "function"
    },
    {
      "inputs": [],
      "name": "getBalance",
      "outputs": [
        {
          "internalType": "uint256",
          "name": "",
          "type": "uint256"
        }
      ],
      "stateMutability": "view",
      "type": "function"
    },
    {
      "inputs": [],
      "name": "getOwner",
      "outputs": [
        {
          "internalType": "address",
          "name": "",
          "type": "address"
        }
      ],
      "stateMutability": "view",
      "type": "function"
    },
    {
      "inputs": [],
      "name": "getPriceFeed",
      "outputs": [
        {
          "internalType": "contract AggregatorV3Interface",
          "name": "",
          "type": "address"
        }
      ],
      "stateMutability": "view",
      "type": "function"
    },
    {
      "inputs": [],
      "name": "s_priceFeed",
      "outputs": [
        {
          "internalType": "contract AggregatorV3Interface",
          "name": "",
          "type": "address"
        }
      ],
      "stateMutability": "view",
      "type": "function"
    },
    {
      "inputs": [],
      "name": "withdraw",
      "outputs": [],
      "stateMutability": "nonpayable",
      "type": "function"
    }
  ],
  "transactionHash": "0xb6b3de7130f07d9d2b901a96df618e03818bcdad7b6f91a0771355a5997da36a",
  "args": [
    "0x694AA1769357215DE4FAC081bf1f309aDC325306"
  ],
  "numDeployments": 2,
  "solcInputHash": "0bf75eb112d709ff8d4e3684b45fc499",
  "bytecode": "0x60a060405234801561001057600080fd5b5060405161079538038061079583398101604081905261002f91610058565b33608052600080546001600160a01b0319166001600160a01b0392909216919091179055610088565b60006020828403121561006a57600080fd5b81516001600160a01b038116811461008157600080fd5b9392505050565b6080516106eb6100aa6000396000818161015501526101ca01526106eb6000f3fe6080604052600436106100865760003560e01c80636b69a592116100595780636b69a59214610129578063893d20e8146101465780639e87a5cd14610179578063b60d428814610197578063dc0d3dff1461019f57600080fd5b80630ec3b0271461008b57806312065fe0146100c85780633ccfd60b146100e55780633e47d6f3146100fc575b600080fd5b34801561009757600080fd5b506000546100ab906001600160a01b031681565b6040516001600160a01b0390911681526020015b60405180910390f35b3480156100d457600080fd5b50475b6040519081526020016100bf565b3480156100f157600080fd5b506100fa6101bf565b005b34801561010857600080fd5b506100d7610117366004610543565b60016020526000908152604090205481565b34801561013557600080fd5b506100d76802b5e3af16b188000081565b34801561015257600080fd5b507f00000000000000000000000000000000000000000000000000000000000000006100ab565b34801561018557600080fd5b506000546001600160a01b03166100ab565b6100fa61030c565b3480156101ab57600080fd5b506100ab6101ba36600461056c565b6103e4565b336001600160a01b037f000000000000000000000000000000000000000000000000000000000000000016146102085760405163579610db60e01b815260040160405180910390fd5b60005b60025481101561025f5760006002828154811061022a5761022a610585565b60009182526020808320909101546001600160a01b031682526001905260408120555080610257816105b1565b91505061020b565b50604080516000815260208101918290525161027d916002916104c9565b50604051600090339047908381818185875af1925050503d80600081146102c0576040519150601f19603f3d011682016040523d82523d6000602084013e6102c5565b606091505b50509050806103095760405162461bcd60e51b815260206004820152600b60248201526a10d85b1b0819985a5b195960aa1b60448201526064015b60405180910390fd5b50565b6000546802b5e3af16b18800009061032e9034906001600160a01b031661040e565b101561037c5760405162461bcd60e51b815260206004820152601b60248201527f596f75206e65656420746f207370656e64206d6f7265204554482100000000006044820152606401610300565b336000908152600160205260408120805434929061039b9084906105ca565b9091555050600280546001810182556000919091527f405787fa12a823e0f2b7631cc41b3ba8828b3321ca811111fa75cd3aa3bb5ace0180546001600160a01b03191633179055565b600281815481106103f457600080fd5b6000918252602090912001546001600160a01b0316905081565b60008061041a83610446565b90506000670de0b6b3a764000061043186846105dd565b61043b91906105f4565b925050505b92915050565b600080826001600160a01b031663feaf968c6040518163ffffffff1660e01b815260040160a060405180830381865afa158015610487573d6000803e3d6000fd5b505050506040513d601f19601f820116820180604052508101906104ab9190610635565b505050915050806402540be4006104c29190610685565b9392505050565b82805482825590600052602060002090810192821561051e579160200282015b8281111561051e57825182546001600160a01b0319166001600160a01b039091161782556020909201916001909101906104e9565b5061052a92915061052e565b5090565b5b8082111561052a576000815560010161052f565b60006020828403121561055557600080fd5b81356001600160a01b03811681146104c257600080fd5b60006020828403121561057e57600080fd5b5035919050565b634e487b7160e01b600052603260045260246000fd5b634e487b7160e01b600052601160045260246000fd5b6000600182016105c3576105c361059b565b5060010190565b808201808211156104405761044061059b565b80820281158282048414176104405761044061059b565b60008261061157634e487b7160e01b600052601260045260246000fd5b500490565b805169ffffffffffffffffffff8116811461063057600080fd5b919050565b600080600080600060a0868803121561064d57600080fd5b61065686610616565b945060208601519350604086015192506060860151915061067960808701610616565b90509295509295909350565b80820260008212600160ff1b841416156106a1576106a161059b565b81810583148215176104405761044061059b56fea2646970667358221220b31c46cbe5609b992ee88c469537776d42a82dba067044f753b1bfec4a14dcf764736f6c63430008120033",
  "devdoc": {
    "kind": "dev",
    "methods": {},
    "version": 1
  },
  "userdoc": {
    "kind": "user",
    "methods": {},
    "version": 1
  },
  "storageLayout": {
    "storage": [
      {
        "astId": 64,
        "contract": "contracts/FundMe.sol:FundMe",
        "label": "s_priceFeed",
        "offset": 0,
        "slot": "0",
        "type": "t_contract(AggregatorV3Interface)45"
      },
      {
        "astId": 68,
        "contract": "contracts/FundMe.sol:FundMe",
        "label": "addressToAmountFunded",
        "offset": 0,
        "slot": "1",
        "type": "t_mapping(t_address,t_uint256)"
      },
      {
        "astId": 71,
        "contract": "contracts/FundMe.sol:FundMe",
        "label": "funders",
        "offset": 0,
        "slot": "2",
        "type": "t_array(t_address)dyn_storage"
      }
    ],
    "types": {
      "t_address": {
        "encoding": "inplace",
        "label": "address",
        "numberOfBytes": "20"
      },
      "t_array(t_address)dyn_storage": {
        "base": "t_address",
        "encoding": "dynamic_array",
        "label": "address[]",
        "numberOfBytes": "32"
      },
      "t_contract(AggregatorV3Interface)45": {
        "encoding": "inplace",
        "label": "contract AggregatorV3Interface",
        "numberOfBytes": "20"
      },
      "t_mapping(t_address,t_uint256)": {
        "encoding": "mapping",
        "key": "t_address",
        "label": "mapping(address => uint256)",
        "numberOfBytes": "32",
        "value": "t_uint256"
      },
      "t_uint256": {
        "encoding": "inplace",
        "label": "uint256",
        "numberOfBytes": "32"
      }
    }
  }
}